:100000000C9457000C9474000C9474000C947400BD
:100010000C9474000C9474000C9474000C94740090
:100020000C9474000C9474000C9474000C94740080
:100030000C9474000C9476000C9474000C9474006E
:100040000C942E020C9474000C94AE030C94DC03FC
:100050000C9474000C9474000C9474000C94740050
:100060000C9474000C9474007F058B058B058B0534
:100070008B058B058B058B058B058B058B05EF049D
:10008000130537055B058B058B058B058B058B05EC
:100090008B05FB041F05430567058B058B058B0549
:1000A0008B058B058B0507052B054F057305112463
:1000B0001FBECFEFD8E0DEBFCDBF15E0A0E0B1E0BE
:1000C000EAEAFDE002C005900D92AA3BB107D9F71C
:1000D00026E0AAEBB5E001C01D92A131B207E1F71D
:1000E0000E94F4050C94D3060C9400001F920F920A
:1000F0000FB60F9211242F933F934F935F936F93FB
:100100007F938F939F93AF93BF93CF93DF93EF939F
:10011000FF930E9493048093C9056091C8050E94D3
:10012000E50490930101809300019091C905992302
:1001300009F47DC18091C705981709F478C18091B1
:10014000C8059E3099F491E0811190E09093C80524
:10015000811106C061E00E94360380E00E944F03D7
:100160008091C80581110EC061E006C0813051F454
:100170001092C80561E080E00E94360389E595E0B1
:100180000E945203C0910001D091010163E775E024
:10019000CE010E94C206892B21F481E08093C6051E
:1001A00055C068E775E0CE010E94C206892B21F593
:1001B0008091BA0591E0811190E09093BA05811188
:1001C00010C060E08DE00E94360387E595E00E9454
:1001D000520360E08DE00E9436038EE795E00E94B6
:1001E00052038091BA05811131C060E08DE00E9418
:1001F00036038AE795E028C061E675E0CE010E94EB
:10020000C206892BA9F061E875E0CE010E94C20602
:10021000892B71F066E875E0CE010E94C206892B39
:1002200039F06BE875E0CE010E94C206892B71F4AB
:10023000D0930D01C0930C0160E088E00E9436036A
:1002400080910C0190910D010E9452038091C6058E
:10025000813009F0ECC08091C505811113C061E0C7
:1002600088E00E94360382E595E00E94520361E037
:1002700088E00E94360380910001909101010E9464
:1002800052031CC0813001F561E088E00E94360312
:1002900082E595E00E94520361E088E00E94360307
:1002A00080910001909101010E9452038091000110
:1002B000909101010E94A4068093BB058091C50521
:1002C0008F5F8093C505B3C08530D8F461E0895F46
:1002D0000E94360380910001909101010E94520317
:1002E000C091C50580910001909101010E94A40672
:1002F000EC2FF0E0E654FA4F8083CF5FC093C50542
:1003000096C0853009F093C08091C905863191F17E
:10031000803209F45BC08C3009F089C08FE695E02B
:1003200090930B0180930A013091BC052091BD058B
:100330006091BB0548EE53E0649FC001659F900D3E
:10034000112444E6349F800D911D11243AE0239F2F
:10035000800D911D11242091BE05820F911D909357
:100360000F0180930E0161E08CE00E9436038FE65E
:1003700095E057C081E995E090930B0180930A01C5
:100380003091BC052091BD056091BB0548EE53E05E
:10039000649FC001659F900D112444E6349F800D39
:1003A000911D11243AE0239F800D911D112420916D
:1003B000BE05820F911D90930F0180930E0161E0A5
:1003C0008CE00E94360380E995E02BC086E995E039
:1003D00090930B0180930A013091BC052091BD05DB
:1003E0006091BB0548EE53E0649FC001659F900D8E
:1003F000112444E6349F800D911D11243AE0239F7F
:10040000800D911D11242091BE05820F911D9093A6
:100410000F0180930E0161E08CE00E94360385E9B4
:1004200095E00E9452031092C5051092C605809176
:10043000C9058093C705FF91EF91DF91CF91BF91DF
:10044000AF919F918F917F916F915F914F913F916C
:100450002F910F900FBE0F901F9018951F920F9223
:100460000FB60F9211242F933F934F935F936F9387
:100470007F938F939F93AF93BF93CF93DF93EF932C
:10048000FF9380910E0190910F016FE070E00E9448
:100490008A067093C2056093C1058091C30590914F
:1004A000C405EB01C80FD91FD093C405C093C30581
:1004B0008091BA05813009F05CC061E675E08091F9
:1004C0000C0190910D010E94C206892BA1F4FE013E
:1004D000EE0FFF1FE55BFE4F808191818093BF058A
:1004E0009093C005C130D24010F485B904C0109279
:1004F000C4051092C30566E875E080910C019091E7
:100500000D010E94C206892BB1F48091C305909120
:10051000C405813021E0920718F48FEF85B90BC034
:10052000815091408F3F910510F415B804C010928E
:10053000C4051092C30561E875E080910C019091AB
:100540000D010E94C206892BA1F48091C3059091F0
:10055000C405811522E0920740F496958795909303
:10056000C0058093BF0585B904C01092C4051092E0
:10057000C305FF91EF91DF91CF91BF91AF919F9113
:100580008F917F916F915F914F913F912F910F903C
:100590000FBE0F901F9018955A9A85E08A95F1F733
:1005A00000005A980895CF93C82F662311F05B9AE4
:1005B00001C05B98549A559A569A579A5F985E98DC
:1005C0005D985C98C7FD5F9AC6FD5E9AC5FD5D9A11
:1005D000C4FD5C9A0E94CC025F985E985D985C981E
:1005E000C3FD5F9AC2FD5E9AC1FD5D9AC0FD5C9A33
:1005F0000E94CC025C9A5D9A5E9A5F9A87EB9BE0C0
:100600000197F1F700C00000CF9108955B985D9AC3
:1006100054985598569857985A9A85E08A95F1F7C4
:1006200000004C9B02C080E101C080E04D998062D7
:100630004E9980644F9980685A9895E09A95F1F7A1
:1006400000005A9A95E09A95F1F700004C99816064
:100650004D9982604E9984604F9988605A980895A8
:1006600060E00C94D30261E00C94D302611102C0EB
:10067000805801C080540C9430030E94060387FD0B
:10068000FCCF85E18A95F1F700000E94060390E017
:10069000089581E00C94300382E00C94300361E013
:1006A0000C94D302CF93DF93EC018991882319F046
:1006B0000E944F03FACFDF91CF910895CF93DF933C
:1006C000FC018491EF012196882321F00E944F03C1
:1006D000FE01F7CFDF91CF910895CF93C82F539AA2
:1006E000559A529A549A559A569A579A8FEF99EF6B
:1006F0000197F1F700C000005D9A5C9A0E94CC025D
:100700008FE19EE40197F1F700C000000E94CC0247
:100710008FEF90E00197F1F700C000000E94CC023B
:100720008FEF90E00197F1F700C000005C980E9405
:10073000CC028FEF90E00197F1F700C0000088E253
:100740000E94300388E00E9430030E94490386E043
:100750000E9430038C2FCF910C9430031F920F9284
:100760000FB60F9211242F938F939F93EF93FF93C4
:100770008091C0009091C6008C71E091CC05EF5F34
:10078000EF712091CB05E21739F0E093CC05F0E052
:10079000E153FA4F908301C082E09091CA05892B02
:1007A0008093CA05FF91EF919F918F912F910F90A8
:1007B0000FBE0F901F9018951F920F920FB60F92B9
:1007C00011248F939F93EF93FF939091CE05809187
:1007D000CD05981769F0E091CD05EF5FEF71E093DB
:1007E000CD05F0E0E151FA4F80818093C60005C04D
:1007F0008091C1008F7D8093C100FF91EF919F9107
:100800008F910F900FBE0F901F9018951092CE05EC
:100810001092CD051092CC051092CB0597FF03C026
:1008200022E02093C00090789093C5008093C4008C
:1008300088E98093C10086E08093C200089590917A
:10084000CC058091CB059817A9F09091CB059F5FBF
:100850009F71E92FF0E0E153FA4F20818091CA05A2
:100860009093CB051092CA0590E0982F8827820FAD
:10087000911D089580E091E008959091CE059F5FCD
:100880009F712091CD059217E1F3E92FF0E0E1513E
:10089000FA4F80839093CE058091C100806280934F
:1008A000C1000895CF93DF93EC018991882319F05B
:1008B0000E943D04FACFDF91CF910895CF93DF934B
:1008C000FC018491EF012196882321F00E943D04D0
:1008D000FE01F7CFDF91CF9108950F931F93CF9330
:1008E000DF93C7E4D1E0699187E290E00E94B70509
:1008F00081E0CB34D807B9F7C4E4D1E08E01699127
:1009000087E290E00E949C05F801608188E290E017
:100910000E94D405F1E0C734DF0781F7DF91CF9162
:100920001F910F910895BF92CF92DF92EF92FF92A5
:100930000F931F93CF93DF9304E411E0CBE06801A2
:10094000F801608188E290E00E94DF0587E4E82EEC
:1009500081E0F82E94E0B92EBC0EDC2FFAE6FA9571
:10096000F1F700C0F70161917F0186E290E00E94FB
:10097000EA05811103C0D093100605C080910F06CF
:100980008F5F80930F06DF5FDB11E8CF0F5F1F4F94
:10099000F601608188E290E00E94DF05C65FC932FF
:1009A00071F680910F068C3011F41092100610929F
:1009B0000F0680911006DF91CF911F910F91FF904C
:1009C000EF90DF90CF90BF90089590E08332910533
:1009D00008F0A1C0FC01EC5CFF4F0C949E06611175
:1009E00005C080912A0190912B01089580911001FA
:1009F000909111010895611105C080912C01909191
:100A00002D010895809112019091130108956111B3
:100A100005C080912E0190912F01089580911401BD
:100A2000909115010895611105C080913001909158
:100A30003101089580911601909117010895611177
:100A400005C0809132019091330108958091180181
:100A5000909119010895611105C080913401909120
:100A60003501089580911A0190911B01089561113B
:100A700005C08091360190913701089580911C0145
:100A800090911D010895611105C0809138019091E8
:100A90003901089580911E0190911F0108956111FF
:100AA00005C080913A0190913B0108958091200109
:100AB000909121010895611105C080913C019091B0
:100AC0003D010895809122019091230108956111C3
:100AD00005C080913E0190913F01089580912401CD
:100AE000909125010895611105C080914001909178
:100AF0004101089580912601909127010895611187
:100B000005C0809142019091430108958091280190
:100B10009091290108958AE995E0089590E0880F61
:100B2000991FFC01611103C0E65DFE4F02C0E05F4A
:100B3000FE4F808191810895FC01408121E030E0E9
:100B400001C0220F6A95EAF7242B20830895FC0147
:100B5000808121E030E001C0220F6A95EAF72095FC
:100B60008223808380818181282B21830895FC0149
:100B7000808121E030E001C0220F6A95EAF7922FD0
:100B800090958923808380818181282B21830895FA
:100B9000FC01908121E030E001C0220F6A95EAF764
:100BA0002095292320830895FC01408121E030E035
:100BB00001C0220F6A95EAF7242B20830895FC01D7
:100BC000408121E030E001C0220F6A95EAF7242736
:100BD00020830895FC01808190E002C0959587955F
:100BE0006A95E2F78170089560E084E290E00E94E7
:100BF0009C0561E084E290E00E949C0562E084E252
:100C000090E00E949C0563E084E290E00E949C05D5
:100C100064E084E290E00E949C0565E084E290E05C
:100C20000E949C0566E084E290E00E949C0567E0DB
:100C300084E290E00E949C050E946D048CE00E947A
:100C40006D0360E080E00E9436038BE495E00E9433
:100C5000520361E080E00E9436038BE495E00E943D
:100C6000520360E081E00E9436038BE595E00E942C
:100C7000520360E088E00E94360381E695E00E941E
:100C8000520360E08DE00E9436038AE795E00E94FF
:100C9000520361E081E00E94360386E695E00E94FF
:100CA000520361E088E00E9436038CE695E00E94E2
:100CB00052038FE39FE10197F1F700C0000080E449
:100CC0000E943003C2E0D1E089910E94330391E099
:100CD000CA30D907C9F780E80E94300380918100AB
:100CE0008A7F80938100809181008260809381005F
:100CF00080916F00816080936F0085B58A7F85BD8C
:100D000085B5826085BD80916E00816080936E00A4
:100D10007894FFCFAA1BBB1B51E107C0AA1FBB1FC2
:100D2000A617B70710F0A61BB70B881F991F5A9577
:100D3000A9F780959095BC01CD010895EE0FFF1F96
:100D40000590F491E02D0994FC0188279927E894F7
:100D500021912032E9F3293010F02E30C8F32B32E4
:100D600041F02D3239F4689404C00E94CB06820F02
:100D7000911D219120532A30C0F31EF49095819546
:100D80009F4F0895FB01DC018D91019080190110A6
:100D9000D9F3990B08957AE0979F902D879F802D26
:0A0DA000910D11240895F894FFCF7F
:100DAA005A051B11001B1B1B1B1B700561056400E8
:100DBA007305610581057005910596059F05A105D5
:100DCA00A305A505AB0578050000AD05AF05B1057E
:100DDA00B305B505B7059F05A105A305A505AB058F
:100DEA0078050000060504000102038000810083E3
:100DFA000084008600870089008A008C008E008F9C
:100E0A00009100920094009500970098009A009B28
:100E1A00009D009F00A000A200A300A500A600A8B4
:100E2A0000A900AB00AC00AD00AF00B000B200B347
:100E3A0000B500B600B800B900BA00BC00BD00BEDB
:100E4A0000C000C100C300C400C500C600C800C974
:100E5A0000CA00CC00CD00CE00CF00D100D200D312
:100E6A0000D400D500D600D800D900DA00DB00DCB7
:100E7A0000DD00DE00DF00E000E100E200E300E464
:100E8A0000E500E600E700E800E900EA00EB00EB15
:100E9A0000EC00ED00EE00EF00EF00F000F100F2D0
:100EAA0000F200F300F400F400F500F500F600F794
:100EBA0000F700F800F800F900F900FA00FA00FA61
:100ECA0000FB00FB00FC00FC00FC00FD00FD00FD37
:100EDA0000FD00FE00FE00FE00FE00FE00FF00FF17
:100EEA0000FF00FF00FF00FF00FF00FF00FF00FF00
:100EFA0000FF00FF00FF00FF00FE00FE00FE00FEF4
:100F0A0000FE00FE00FD00FD00FD00FC00FC00FCF0
:100F1A0000FB00FB00FB00FA00FA00F900F900F8F8
:100F2A0000F800F700F700F600F600F500F400F408
:100F3A0000F300F300F200F100F000F000EF00EE21
:100F4A0000ED00ED00EC00EB00EA00E900E800E744
:100F5A0000E700E600E500E400E300E200E100E06B
:100F6A0000DF00DE00DD00DB00DA00D900D800D7A0
:100F7A0000D600D500D400D200D100D000CF00CDD9
:100F8A0000CC00CB00CA00C800C700C600C400C31A
:100F9A0000C200C000BF00BE00BC00BB00BA00B85F
:100FAA0000B700B500B400B300B100B000AE00ADA8
:100FBA0000AB00AA00A800A700A500A400A200A1F7
:100FCA00009F009E009C009B009900980096009547
:100FDA00009300910090008E008D008B008A00889B
:100FEA0000870085008300820080007F007D007CEE
:100FFA00007A007800770075007400720071006F43
:10100A00006E006C006A0069006700660064006395
:10101A0000610060005E005D005B005A00580057E6
:10102A000055005400520051004F004E004C004B36
:10103A00004A004800470045004400430041004080
:10104A00003F003D003C003B0039003800370035C6
:10105A000034003300320030002F002E002D002B08
:10106A00002A002900280027002600250024002243
:10107A0000210020001F001E001D001C001B001A7A
:10108A0000190018001800170016001500140013A4
:10109A000012001200110010000F000F000E000DC8
:1010AA00000C000C000B000B000A000900090008E4
:1010BA0000080007000700060006000500050004F6
:1010CA0000040004000300030003000200020002FF
:1010DA000001000100010001000100010000000000
:1010EA0000000000000000000000000000000000F6
:1010FA0000000000000000000001000100010001E2
:10110A0000010002000200020002000300030003C3
:10111A00000400040005000500050006000600079B
:10112A000007000800080009000A000A000B000B6B
:10113A00000C000D000D000E000F00100010001131
:10114A0000120013001400140015001600170018EE
:10115A000019001A001B001C001D001E001F0020A1
:10116A000021002200230024002500260027002950
:10117A00002A002B002C002D002E003000310032F6
:10118A0000330035003600370039003A003B003C96
:10119A00003E003F00410042004300450046004730
:1011AA000049004A004C004D004F005000520053C5
:1011BA000054005600570059005A005C005D005F59
:1011CA00006000620064006500670068006A006BE6
:1011DA00006D006E00700071007300750076007873
:1011EA000079007B007C007E0080002020202020E7
:1011FA002020202020202020202000776176653AB8
:10120A000073696E6500467265713A0031303020AC
:10121A00487A0066726571006F6E6F6666006F6E5F
:10122A000072616D70007371726500747269610099
:10123A00206B487A00204D487A00496E697400375D
:10124A000038003900736869667400300031003272
:0A125A0000330034003500360000B8
:00000001FF
